:020000040800F2
:10000000005000209D030008390300084103000848
:1000100049030008510300085903000800000000CC
:100020000000000000000000000000006103000864
:100030006D03000800000000790300088503000834
:10004000E5030008E5030008E5030008E5030008F0
:10005000E5030008E5030008E5030008E5030008E0
:10006000E5030008E5030008E5030008E5030008D0
:10007000E5030008E5030008E5030008E5030008C0
:10008000E5030008E5030008E5030008E5030008B0
:10009000E5030008E5030008E5030008E5030008A0
:1000A000E5030008E5030008E5030008E503000890
:1000B000E5030008E5030008E5030008E503000880
:1000C000E5030008E5030008E5030008E503000870
:1000D000E5030008E5030008E5030008E503000860
:1000E000E5030008E5030008E50300080000000040
:1000F0000000000000000000000000000000000000
:0C01000000000000000000005FF808F1A3
:10010C0010B5054C237833B9044B13B10448AFF345
:10011C0000800123237010BD10000020000000009F
:10012C002C1A000808B5034B1BB103490348AFF365
:10013C00008008BD00000000140000202C1A0008EC
:10014C0080B588B000AF00F049F900F025F800F058
:10015C0069F800F0C7FA00F0FBFA02237B60002379
:10016C003B753B1D184600F0FDFB00F01DFB00F03D
:10017C000BFB00F0DDFA40F6B83000F091F94FF4CB
:10018C000051044801F028F84FF4FA7000F088F997
:10019C0000BFDEE70010014080B590B000AF07F162
:1001AC00180328220021184601F00EFC3B1D0022EA
:1001BC001A605A609A60DA601A610123BB614FF4CD
:1001CC008033FB6100233B620123BB6202237B6310
:1001DC004FF48033BB634FF4E013FB6307F1180358
:1001EC00184601F013F80346002B01D000F066F816
:1001FC000F237B600223BB600023FB604FF4806302
:10020C003B6100237B613B1D0221184601F080FA03
:10021C000346002B01D000F051F800BF4037BD461B
:10022C0080BD000080B588B000AF07F1100300223C
:10023C001A605A609A60DA601E4B9B691D4A43F043
:10024C00100393611B4B9B6903F01003FB60FB686D
:10025C00184B9B69174A43F020039361154B9B691C
:10026C0003F02003BB60BB68124B9B69114A43F03F
:10027C00040393610F4B9B6903F004037B607B6861
:10028C0000224FF400510C4800F08EFF4FF4005345
:10029C003B6101237B610023BB610223FB6107F1FE
:1002AC0010031946044800F0FBFD00BF2037BD4683
:1002BC0080BD00BF001002400010014080B400AFB0
:1002CC0072B600BF00BFFDE780B485B000AF154B20
:1002DC009B69144A43F001039361124B9B6903F031
:1002EC000103BB60BB680F4BDB690E4A43F08053C4
:1002FC00D3610C4BDB6903F080537B607B680A4B4A
:10030C005B68FB60FB6823F0E063FB60FB6843F019
:10031C000073FB60044AFB68536000BF1437BD4692
:10032C0080BC7047001002400000014080B400AF58
:10033C0000BFFDE780B400AF00BFFDE780B400AFA5
:10034C0000BFFDE780B400AF00BFFDE780B400AF95
:10035C0000BFFDE780B400AF00BFBD4680BC704756
:10036C0080B400AF00BFBD4680BC704780B400AF06
:10037C0000BFBD4680BC704780B500AF00F074F87C
:10038C0000BF80BD80B400AF00BFBD4680BC7047CD
:10039C00FFF7F8FF0B480C490C4A002302E0D45835
:1003AC00C4500433C4188C42F9D3094A094C0023B5
:1003BC0001E013600432A242FBD301F00DFBFFF706
:1003CC00BFFE7047000000200C000020701A0008CF
:1003DC001000002050000020FEE7000080B500AFA8
:1003EC00084B1B68074A43F010031360032000F00E
:1003FC0041F90F2000F008F8FFF766FF00231846BC
:10040C0080BD00BF0020024080B582B000AF786094
:10041C00124B1A68124B1B7819464FF47A73B3FBC4
:10042C00F1F3B2FBF3F3184600F04FF90346002B3F
:10043C0001D001230EE07B680F2B0AD800227968CB
:10044C004FF0FF3000F021F9064A7B68136000235F
:10045C0000E0012318460837BD4680BD000000208F
:10046C00080000200400002080B400AF054B1B786E
:10047C001A46054B1B681344034A136000BFBD4664
:10048C0080BC7047080000202C00002080B400AF16
:10049C00024B1B681846BD4680BC70472C000020E0
:1004AC0080B584B000AF7860FFF7F0FFB8607B6870
:1004BC00FB60FB68B3F1FF3F05D00A4B1B781A4673
:1004CC00FB681344FB6000BFFFF7E0FF0246BB680C
:1004DC00D31AFA689A42F7D800BF00BF1037BD464E
:1004EC0080BD00BF0800002080B485B000AF7860EC
:1004FC007B6803F00703FB600C4BDB68BB60BA68DE
:10050C004FF6FF031340BB60FB681A02BB68134332
:10051C0043F0BF6343F40033BB60044ABB68D36051
:10052C0000BF1437BD4680BC704700BF00ED00E033
:10053C0080B400AF044BDB681B0A03F007031846BA
:10054C00BD4680BC704700BF00ED00E080B483B0B6
:10055C0000AF03463960FB7197F90730002B0ADBBB
:10056C003B68DAB20C4997F907301201D2B20B444E
:10057C0083F800230AE03B68DAB20849FB7903F000
:10058C000F03043B1201D2B20B441A7600BF0C3796
:10059C00BD4680BC704700BF00E100E000ED00E00C
:1005AC0080B489B000AFF860B9607A60FB6803F082
:1005BC000703FB61FB69C3F10703042B28BF04236A
:1005CC00BB61FB690433062B02D9FB69033B00E0DA
:1005DC0000237B614FF0FF32BB6902FA03F3DA436D
:1005EC00BB681A407B699A404FF0FF317B6901FA76
:1005FC0003F3D9437B680B40134318462437BD469D
:10060C0080BC704780B400AFBFF34F8F00BF064B68
:10061C00DB6803F4E0620449044B1343CB60BFF383
:10062C004F8F00BF00BFFDE700ED00E00400FA05AE
:10063C0080B582B000AF78607B68013BB3F1807FFE
:10064C0001D301230FE00A4A7B68013B53600F2161
:10065C004FF0FF30FFF77AFF054B00229A60044BF6
:10066C0007221A60002318460837BD4680BD00BF1C
:10067C0010E000E080B582B000AF78607868FFF7DA
:10068C0033FF00BF0837BD4680BD80B586B000AFD4
:10069C000346B9607A60FB7300237B61FFF748FF68
:1006AC0078617A68B9687869FFF77AFF024697F93A
:1006BC000F3011461846FFF749FF00BF1837BD46EB
:1006CC0080BD80B500AFFFF79DFF80B582B000AF55
:1006DC0078607868FFF7ACFF034618460837BD46CC
:1006EC0080BD000080B483B000AF0023FB710D4BC4
:1006FC001B6903F08003002B0DD00A4B0A4A5A6089
:10070C00084B0A4A5A60074B1B6903F08003002B05
:10071C0001D00123FB71FB7918460C37BD4680BC18
:10072C00704700BF0020024023016745AB89EFCD25
:10073C0080B400AF054B1B69044A43F0800313617E
:10074C0000231846BD4680BC704700BF0020024005
:10075C0080B400AF094B1B6903F40073002B07D165
:10076C00064B074A9A60054B064A9A60002300E044
:10077C0001231846BD4680BC704700BF00200240D4
:10078C0023016745AB89EFCD80B400AF054B1B69E6
:10079C00044A23F40073136100231846BD4680BC41
:1007AC00704700BF0020024080B500AFFFF789FF03
:1007BC0000BF80BD80B584B000AF7860FFF766FEE7
:1007CC00F86010E07B68B3F1FF3F0CD07B68002B26
:1007DC0007D0FFF75BFE0246FB68D31A7A689A4291
:1007EC0001D2032325E0154BDB6803F00103002B3A
:1007FC00E8D1124BDB6803F02003002B02D00F4B27
:10080C002022DA600D4BDB6803F01003002B0BD1B8
:10081C000A4BDB6903F00103002B05D1074BDB68A6
:10082C0003F00403002B03D000F00AF8012300E0CE
:10083C00002318461037BD4680BD00BF0020024083
:10084C0080B483B000AF00237B60234BDB6803F0E4
:10085C001003002B09D0214BDB6943F002031F4A24
:10086C00D3617B6843F010037B601B4BDB6803F0A8
:10087C000403002B09D0194BDB6943F00103174A21
:10088C00D3617B6843F004037B60134BDB6903F09B
:10089C000103002B0BD0114BDB6943F004030F4A0F
:1008AC00D3610D4BDB690C4A23F00103D3617B68E8
:1008BC0040F20112934206D1074BDB69064A23F042
:1008CC000103D36102E0044A7B68D36000BF0C379C
:1008DC00BD4680BC704700BF0020024030000020A5
:1008EC0080B582B000AFA523BB710123FB7100F072
:1008FC00BBFA0346BB714CF25030FFF75BFF03466B
:10090C00FB71FB79002B23D1144B0022DA61144BC1
:10091C001B69134A43F020031361114B1B69104AE6
:10092C0043F0400313614CF25030FFF743FF034692
:10093C00FB710B4B1B690A4A23F020031361FB79F3
:10094C00002B05D1BB79184600F0CAF90346FB71A0
:10095C00FB7918460837BD4680BD00BF300000202B
:10096C000020024080B584B000AF78600123FB7397
:10097C00394B1B7E012B01D1022369E0364B01223E
:10098C001A767B681B6803F00103002B1AD07B6876
:10099C005B68012B07D17B689B68184600F05EF8FA
:1009AC000346FB7306E07B689B68184600F0F8F87A
:1009BC000346FB73FB7B002B04D0274B00221A76DB
:1009CC00FB7B45E07B681B6803F00203002B0ED019
:1009DC007B681B7C184600F083F90346FB73FB7B9A
:1009EC00002B04D01C4B00221A76FB7B30E07B687A
:1009FC001B6803F00403002B0ED07B685B7C18464D
:100A0C0000F0BEF90346FB73FB7B002B04D0124BAA
:100A1C0000221A76FB7B1BE07B681B6803F0080343
:100A2C00002B11D07B685A697B681B7E19461046D7
:100A3C0000F0DCF90346FB73FB7B002B04D0064B68
:100A4C0000221A76FB7B03E0034B00221A76FB7B19
:100A5C0018461037BD4680BD3000002080B586B0EA
:100A6C0000AF78600023FB754FF6FF73BB824FF627
:100A7C00FF737B824FF6FF733B824FF6FF73FB8154
:100A8C0000F0E8F902467B68DB4313407B607B682F
:100A9C009BB2DBB2BB827B681B0A9BB2DBB27B8254
:100AAC007B681B0C9BB2DBB23B827B681B0EFB8111
:100ABC004CF25030FFF77EFE0346FB75FB7D002B9E
:100ACC0062D1344B0022DA61FFF70AFF0346FB7553
:100ADC00FB7D002B58D1304B1B692F4A43F0100380
:100AEC001361BB8AFF2B0DD02C4B1B899AB22B495F
:100AFC00BB8A13409BB20B814CF25030FFF75AFE6D
:100B0C000346FB75FB7D002B10D17B8AFF2B0DD090
:100B1C00224B5B899AB221497B8A13409BB24B8151
:100B2C004CF25030FFF746FE0346FB75FB7D002B65
:100B3C0010D13B8AFF2B0DD0184B9B899AB21749C9
:100B4C003B8A13409BB28B814CF25030FFF732FE44
:100B5C000346FB75FB7D002B10D1FB89FF2B0DD0C1
:100B6C000E4BDB899AB20D49FB8913409BB2CB81AA
:100B7C004CF25030FFF71EFE0346FB75064B1B690B
:100B8C00054A23F010031361FB7D18461837BD4648
:100B9C0080BD00BF300000200020024000F8FF1F85
:100BAC0080B586B000AF78600023FB754FF6FF73FD
:100BBC00BB824FF6FF737B824FF6FF733B824FF67F
:100BCC00FF73FB8100F046F902467B6813437B60A0
:100BDC007B689BB2DBB2BB827B681B0A9BB2DBB22D
:100BEC007B827B681B0C9BB2DBB23B827B681B0E4F
:100BFC00FB814CF25030FFF7DDFD0346FB75FB7DAE
:100C0C00002B62D1334B0022DA61FFF769FE0346F9
:100C1C00FB75FB7D002B58D12F4B1B692E4A43F0E3
:100C2C0010031361BB8AFF2B0DD02C4B1B899AB27E
:100C3C002A49BB8A13439BB20B814CF25030FFF70D
:100C4C00B9FD0346FB75FB7D002B10D17B8AFF2B76
:100C5C000DD0224B5B899AB220497B8A13439BB2FD
:100C6C004B814CF25030FFF7A5FD0346FB75FB7D25
:100C7C00002B10D13B8AFF2B0DD0184B9B899AB2BD
:100C8C0016493B8A13439BB28B814CF25030FFF7D1
:100C9C0091FD0346FB75FB7D002B10D1FB89FF2BCF
:100CAC000DD00E4BDB899AB20C49FB8913439BB2D6
:100CBC00CB814CF25030FFF77DFD0346FB75064BA4
:100CCC001B69054A23F010031361FB7D1846183786
:100CDC00BD4680BD300000200020024000F8FF1F00
:100CEC0080B584B000AF0346FB710023FB734CF25C
:100CFC005030FFF75FFD0346FB73FB7B002B33D1BA
:100D0C001C4B0022DA611C4B1B691B4A43F020036D
:100D1C001361194B1B69184A43F0400313614CF2E1
:100D2C005030FFF747FD0346FB73134B1B69124A08
:100D3C0023F020031361FB7B002B15D10E4B1B6999
:100D4C000D4A43F0100313610C4BFA7992B21A80DE
:100D5C004CF25030FFF72EFD0346FB73064B1B691C
:100D6C00054A23F010031361FB7B18461037BD4670
:100D7C0080BD00BF300000200020024000F8FF1FA3
:100D8C0080B584B000AF0346FB710023FB734CF2BB
:100D9C005030FFF70FFD0346FB73FB7B002B1AD182
:100DAC000F4B0022DA610F4B1B690E4A43F0100304
:100DBC001361FB7963F07703DAB20B4B5A804CF278
:100DCC005030FFF7F7FC0346FB73064B1B69054AD3
:100DDC0023F010031361FB7B18461037BD4680BD12
:100DEC00300000200020024000F8FF1F80B584B0C6
:100DFC0000AF78600B46FB700123FB734CF2503054
:100E0C00FFF7D8FC0346FB73FB7B002B18D10F4B71
:100E1C000022DA610E4B1B690D4A43F0100313617B
:100E2C007B68FA7892B21A804CF25030FFF7C2FC11
:100E3C000346FB73064B1B69054A23F01003136131
:100E4C00FB7B18461037BD4680BD00BF300000202C
:100E5C000020024080B400AF024B1B6A1846BD460E
:100E6C0080BC70470020024080B483B000AFA52343
:100E7C007B6000233B60094BDB6903F002033B60A2
:100E8C003B68022B02D100237B6001E0A5237B6031
:100E9C007B6818460C37BD4680BC7047002002406A
:100EAC0080B48BB000AF7860396000237B62002384
:100EBC003B6269E101227B6A02FA03F3FB613B6846
:100ECC001B68FA691340BB61BA69FB699A4240F02E
:100EDC0058813B685B689A4A93425ED0984A934229
:100EEC0075D8984A934258D0964A93426FD8964AEE
:100EFC00934252D0944A934269D8944A93424CD02C
:100F0C00924A934263D8924A934246D0904A934273
:100F1C005DD8122B2AD8122B59D801A252F823F0E3
:100F2C00A70F0008810F0008930F0008D50F0008C9
:100F3C00DB0F0008DB0F0008DB0F0008DB0F0008DD
:100F4C00DB0F0008DB0F0008DB0F0008DB0F0008CD
:100F5C00DB0F0008DB0F0008DB0F0008DB0F0008BD
:100F6C00DB0F0008890F00089D0F0008794A934297
:100F7C0013D02CE03B68DB683B6229E03B68DB6804
:100F8C0004333B6224E03B68DB6808333B621FE0C0
:100F9C003B68DB680C333B621AE03B689B68002BB8
:100FAC0002D104233B6213E03B689B68012B05D103
:100FBC0008233B627B68FA691A6109E008233B62EB
:100FCC007B68FA695A6103E000233B6200E000BFD2
:100FDC00BB69FF2B01D87B6801E07B6804337B6124
:100FEC00BB69FF2B02D87B6A9B0002E07B6A083B43
:100FFC009B003B617B691A680F213B6901FA03F383
:10100C00DB431A40396A3B6901FA03F31A437B69E3
:10101C001A603B685B6803F08053002B00F0B180D2
:10102C004D4B9B694C4A43F0010393614A4B9B69BE
:10103C0003F00103BB60BB68484A7B6A9B08023320
:10104C0052F82330FB607B6A03F003039B000F22F2
:10105C0002FA03F3DB43FA681340FB607B68404AF7
:10106C00934213D07B683F4A93420DD07B683E4A33
:10107C00934207D07B683D4A934201D1032306E09B
:10108C00042304E0022302E0012300E000237A6A37
:10109C0002F0030292009340FA681343FB602F495D
:1010AC007B6A9B080233FA6841F823203B685B6833
:1010BC0003F48013002B06D02D4B9A682C49BB6986
:1010CC0013438B6006E02A4B9A68BB69DB432849C3
:1010DC0013408B603B685B6803F40013002B06D055
:1010EC00234BDA682249BB691343CB6006E0204BE3
:1010FC00DA68BB69DB431E491340CB603B685B6815
:10110C0003F40033002B06D0194B5A681849BB69FD
:10111C0013434B6006E0164B5A68BB69DB4314491A
:10112C0013404B603B685B6803F48033002B21D089
:10113C000F4B1A680E49BB6913430B6021E000BFCB
:10114C0000003210000031100000221000002110AD
:10115C0000001210000011100010024000000140AD
:10116C0000080140000C0140001001400014014037
:10117C00000401400B4B1A68BB69DB43094913405F
:10118C000B607B6A01337B623B681A687B6A22FACC
:10119C0003F3002B7FF48EAE00BF00BF2C37BD468F
:1011AC0080BC70470004014080B483B000AF78600D
:1011BC000B467B8013467B707B78002B03D07A88A0
:1011CC007B681A6103E07B881A047B681A6100BF94
:1011DC000C37BD4680BC704780B485B000AF7860DA
:1011EC000B467B807B68DB68FB607A88FB6813406E
:1011FC001A04FB68D9437B880B401A437B681A613D
:10120C0000BF1437BD4680BC7047000080B586B067
:10121C0000AF78607B68002B01D1012372E27B6800
:10122C001B6803F00103002B00F08780924B5B6876
:10123C0003F00C03042B0CD08F4B5B6803F00C03F6
:10124C00082B12D18C4B5B6803F48033B3F5803FD1
:10125C000BD1894B1B6803F40033002B6CD07B68DB
:10126C005B68002B68D101234CE27B685B68B3F5AB
:10127C00803F06D1804B1B687F4A43F48033136058
:10128C002EE07B685B68002B0CD17B4B1B687A4A89
:10129C0023F480331360784B1B68774A23F4802344
:1012AC0013601DE07B685B68B3F5A02F0CD1724B0B
:1012BC001B68714A43F4802313606F4B1B686E4AA2
:1012CC0043F4803313600BE06B4B1B686A4A23F4C6
:1012DC0080331360684B1B68674A23F480231360C8
:1012EC007B685B68002B13D0FFF7D0F8386108E0FF
:1012FC00FFF7CCF802463B69D31A642B01D90323C0
:10130C0000E25D4B1B6803F40033002BF0D014E0BB
:10131C00FFF7BCF8386108E0FFF7B8F802463B6904
:10132C00D31A642B01D90323ECE1534B1B6803F450
:10133C000033002BF0D100E000BF7B681B6803F08A
:10134C000203002B63D04C4B5B6803F00C03002BA7
:10135C000BD0494B5B6803F00C03082B1CD1464B9C
:10136C005B6803F48033002B16D1434B1B6803F0EE
:10137C000203002B05D07B681B69012B01D00123D4
:10138C00C0E13D4B1B6823F0F8027B685B69DB0016
:10139C00394913430B603AE07B681B69002B20D062
:1013AC00364B01221A60FFF771F8386108E0FFF73D
:1013BC006DF802463B69D31A022B01D90323A1E134
:1013CC002D4B1B6803F00203002BF0D02A4B1B683B
:1013DC0023F0F8027B685B69DB00274913430B6041
:1013EC0015E0264B00221A60FFF750F8386108E030
:1013FC00FFF74CF802463B69D31A022B01D90323A1
:10140C0080E11D4B1B6803F00203002BF0D17B68BD
:10141C001B6803F00803002B3AD07B689B69002BF8
:10142C0019D0174B01221A60FFF730F8386108E029
:10143C00FFF72CF802463B69D31A022B01D9032380
:10144C0060E10D4B5B6A03F00203002BF0D001202E
:10145C0000F09CFA1CE00A4B00221A60FFF716F809
:10146C0038610FE0FFF712F802463B69D31A022BE2
:10147C0008D9032346E100BF00100240000042429D
:10148C0080044242924B5B6A03F00203002BE9D1C9
:10149C007B681B6803F00403002B00F0A68000237C
:1014AC00FB758B4BDB6903F08053002B0DD1884B04
:1014BC00DB69874A43F08053D361854BDB6903F0CA
:1014CC008053BB60BB680123FB75824B1B6803F424
:1014DC008073002B18D17F4B1B687E4A43F48073BA
:1014EC001360FEF7D3FF386108E0FEF7CFFF02462A
:1014FC003B69D31A642B01D9032303E1754B1B6899
:10150C0003F48073002BF0D07B68DB68012B06D1D1
:10151C006F4B1B6A6E4A43F0010313622DE07B682C
:10152C00DB68002B0CD16A4B1B6A694A23F0010360
:10153C001362674B1B6A664A23F0040313621CE0B8
:10154C007B68DB68052B0CD1614B1B6A604A43F04E
:10155C00040313625E4B1B6A5D4A43F00103136282
:10156C000BE05B4B1B6A5A4A23F001031362584B86
:10157C001B6A574A23F0040313627B68DB68002B59
:10158C0015D0FEF783FF38610AE0FEF77FFF0246B5
:10159C003B69D31A41F28832934201D90323B1E05B
:1015AC004B4B1B6A03F00203002BEED014E0FEF74A
:1015BC006DFF38610AE0FEF769FF02463B69D31AFA
:1015CC0041F28832934201D903239BE0404B1B6AC2
:1015DC0003F00203002BEED1FB7D012B05D13C4B1C
:1015EC00DB693B4A23F08053D3617B68DB69002BBA
:1015FC0000F08780364B5B6803F00C03082B61D03E
:10160C007B68DB69022B46D1334B00221A60FEF754
:10161C003DFF386108E0FEF739FF02463B69D31AFB
:10162C00022B01D903236DE0294B1B6803F00073D7
:10163C00002BF0D17B681B6AB3F5803F08D1244B9B
:10164C005B6823F400327B689B68214913434B6031
:10165C001F4B5B6823F474127B68196A7B685B6AA6
:10166C000B431B4913434B601B4B01221A60FEF7C3
:10167C000DFF386108E0FEF709FF02463B69D31AFB
:10168C00022B01D903233DE0114B1B6803F00073BF
:10169C00002BF0D035E0104B00221A60FEF7F6FE5E
:1016AC00386108E0FEF7F2FE02463B69D31A022BC2
:1016BC0001D9032326E0064B1B6803F00073002BB3
:1016CC00F0D11EE07B68DB69012B07D1012319E007
:1016DC000010024000700040600042420B4B5B68FF
:1016EC00FB60FB6803F480327B681B6A9A4206D16C
:1016FC00FB6803F470127B685B6A9A4201D0012389
:10170C0000E0002318461837BD4680BD001002408B
:10171C0080B584B000AF786039607B68002B01D154
:10172C000123D0E06A4B1B6803F007033A689A4226
:10173C0010D9674B1B6823F0070265493B681343BC
:10174C000B60634B1B6803F007033A689A4201D0A5
:10175C000123B8E07B681B6803F00203002B20D048
:10176C007B681B6803F00403002B05D0594B5B68A6
:10177C00584A43F4E06353607B681B6803F008032A
:10178C00002B05D0534B5B68524A43F460535360B3
:10179C00504B5B6823F0F0027B689B684D49134308
:1017AC004B607B681B6803F00103002B40D07B6807
:1017BC005B68012B07D1474B1B6803F40033002BEC
:1017CC0015D101237FE07B685B68022B07D1414B6D
:1017DC001B6803F00073002B09D1012373E03D4B10
:1017EC001B6803F00203002B01D101236BE0394B82
:1017FC005B6823F003027B685B68364913434B60DC
:10180C00FEF744FEF8600AE0FEF740FE0246FB6875
:10181C00D31A41F28832934201D9032353E02D4B62
:10182C005B6803F00C027B685B689B009A42EBD10F
:10183C00274B1B6803F007033A689A4210D2244BDB
:10184C001B6823F0070222493B6813430B60204BB3
:10185C001B6803F007033A689A4201D0012332E077
:10186C007B681B6803F00403002B08D0194B5B68E2
:10187C0023F4E0627B68DB68164913434B607B689A
:10188C001B6803F00803002B09D0124B5B6823F490
:10189C0060527B681B69DB000E4913434B6000F000
:1018AC0021F802460B4B5B681B0903F00F030A4936
:1018BC00CB5C22FA03F3094A1360094B1B681846E8
:1018CC00FEF7A2FD002318461037BD4680BD00BFB1
:1018DC000020024000100240441A000800000020C2
:1018EC000400002080B487B000AF0023FB6000230D
:1018FC00BB6000237B6100237B6000233B611E4B9C
:10190C005B68FB60FB6803F00C03042B02D0082B14
:10191C0003D027E0194B3B6127E0FB689B0C03F0DD
:10192C000F03174AD35C7B60FB6803F48033002BF6
:10193C0010D0114B5B685B0C03F00103114AD35CB4
:10194C00BB607B680D4A03FB02F2BB68B2FBF3F38E
:10195C007B6104E07B680C4A02FB03F37B617B69CF
:10196C003B6102E0054B3B6100BF3B6918461C37ED
:10197C00BD4680BC704700BF0010024000127A00C8
:10198C00541A0008641A000800093D0080B485B0A0
:10199C0000AF78600A4B1B680A4AA2FB03235B0A60
:1019AC007A6802FB03F3FB6000BFFB685A1EFA6007
:1019BC00002BF9D100BF00BF1437BD4680BC704767
:1019CC0000000020D34D621003460244934200D124
:1019DC00704703F8011BF9E770B500260C4D0D4C50
:1019EC00641BA410A64209D100F01AF800260A4D77
:1019FC000A4C641BA410A64205D170BD55F8043BDB
:101A0C0098470136EEE755F8043B98470136F2E764
:101A1C00681A0008681A0008681A00086C1A00088E
:101A2C00F8B500BFF8BC08BC9E467047F8B500BFBF
:081A3C00F8BC08BC9E4670478F
:101A4400000000000000000001020304060708096A
:101A540002030405060708090A0B0C0D0E0F1010EB
:041A6400010200007B
:041A68003101000840
:041A6C000D01000860
:0C1A70000024F400100000000100000041
:040000050800039D4F
:00000001FF
